{
  "contractName": "TreeMapMock",
  "abi": [
    {
      "constant": true,
      "inputs": [],
      "name": "size",
      "outputs": [
        {
          "name": "",
          "type": "uint256"
        }
      ],
      "payable": false,
      "stateMutability": "view",
      "type": "function"
    },
    {
      "constant": true,
      "inputs": [],
      "name": "isEmpty",
      "outputs": [
        {
          "name": "",
          "type": "bool"
        }
      ],
      "payable": false,
      "stateMutability": "view",
      "type": "function"
    },
    {
      "constant": true,
      "inputs": [],
      "name": "entries",
      "outputs": [
        {
          "name": "rootIdx",
          "type": "uint256"
        },
        {
          "name": "keys",
          "type": "uint256[]"
        },
        {
          "name": "values",
          "type": "uint256[]"
        },
        {
          "name": "left",
          "type": "uint256[]"
        },
        {
          "name": "right",
          "type": "uint256[]"
        },
        {
          "name": "color",
          "type": "bool[]"
        },
        {
          "name": "hasData",
          "type": "bool[]"
        }
      ],
      "payable": false,
      "stateMutability": "view",
      "type": "function"
    },
    {
      "constant": true,
      "inputs": [
        {
          "name": "key",
          "type": "uint256"
        }
      ],
      "name": "get",
      "outputs": [
        {
          "name": "found",
          "type": "bool"
        },
        {
          "name": "value",
          "type": "uint256"
        }
      ],
      "payable": false,
      "stateMutability": "view",
      "type": "function"
    },
    {
      "constant": true,
      "inputs": [
        {
          "name": "key",
          "type": "uint256"
        },
        {
          "name": "defaultValue",
          "type": "uint256"
        }
      ],
      "name": "getOrDefault",
      "outputs": [
        {
          "name": "value",
          "type": "uint256"
        }
      ],
      "payable": false,
      "stateMutability": "view",
      "type": "function"
    },
    {
      "constant": true,
      "inputs": [
        {
          "name": "keys",
          "type": "uint256[]"
        }
      ],
      "name": "getAll",
      "outputs": [
        {
          "name": "found",
          "type": "bool[]"
        },
        {
          "name": "values",
          "type": "uint256[]"
        }
      ],
      "payable": false,
      "stateMutability": "view",
      "type": "function"
    },
    {
      "constant": false,
      "inputs": [
        {
          "name": "key",
          "type": "uint256"
        },
        {
          "name": "value",
          "type": "uint256"
        }
      ],
      "name": "putIfAbsent",
      "outputs": [
        {
          "name": "newValue",
          "type": "uint256"
        }
      ],
      "payable": false,
      "stateMutability": "nonpayable",
      "type": "function"
    },
    {
      "constant": false,
      "inputs": [
        {
          "name": "key",
          "type": "uint256"
        },
        {
          "name": "value",
          "type": "uint256"
        }
      ],
      "name": "put",
      "outputs": [
        {
          "name": "replaced",
          "type": "bool"
        },
        {
          "name": "oldValue",
          "type": "uint256"
        }
      ],
      "payable": false,
      "stateMutability": "nonpayable",
      "type": "function"
    },
    {
      "constant": false,
      "inputs": [
        {
          "name": "keys",
          "type": "uint256[]"
        },
        {
          "name": "values",
          "type": "uint256[]"
        }
      ],
      "name": "putAll",
      "outputs": [
        {
          "name": "replaced",
          "type": "bool[]"
        },
        {
          "name": "oldValues",
          "type": "uint256[]"
        }
      ],
      "payable": false,
      "stateMutability": "nonpayable",
      "type": "function"
    },
    {
      "constant": false,
      "inputs": [
        {
          "name": "key",
          "type": "uint256"
        }
      ],
      "name": "remove",
      "outputs": [
        {
          "name": "removed",
          "type": "bool"
        },
        {
          "name": "oldValue",
          "type": "uint256"
        }
      ],
      "payable": false,
      "stateMutability": "nonpayable",
      "type": "function"
    },
    {
      "constant": false,
      "inputs": [
        {
          "name": "keys",
          "type": "uint256[]"
        }
      ],
      "name": "removeAll",
      "outputs": [
        {
          "name": "removed",
          "type": "bool[]"
        },
        {
          "name": "oldValues",
          "type": "uint256[]"
        }
      ],
      "payable": false,
      "stateMutability": "nonpayable",
      "type": "function"
    },
    {
      "constant": true,
      "inputs": [],
      "name": "isValid",
      "outputs": [
        {
          "name": "",
          "type": "bool"
        }
      ],
      "payable": false,
      "stateMutability": "view",
      "type": "function"
    }
  ],
  "bytecode": "0x608060405234801561001057600080fd5b50611f6e806100206000396000f3006080604052600436106100ba576000357c0100000000000000000000000000000000000000000000000000000000900463ffffffff1680630fb9bded146100bf5780630fc993761461010a57806317b8633a146102e55780634cc822151461042b578063541aea0f14610477578063681fe70c146104cd5780636e935209146104fc578063745ca2a9146105ff578063949d225d146107025780639507d39a1461072d578063bb5d40eb14610779578063f333080d146107a8575b600080fd5b3480156100cb57600080fd5b506100f460048036038101908080359060200190929190803590602001909291905050506107f3565b6040518082815260200191505060405180910390f35b34801561011657600080fd5b5061011f610813565b6040518088815260200180602001806020018060200180602001806020018060200187810387528d818151815260200191508051906020019060200280838360005b8381101561017c578082015181840152602081019050610161565b5050505090500187810386528c818151815260200191508051906020019060200280838360005b838110156101be5780820151818401526020810190506101a3565b5050505090500187810385528b818151815260200191508051906020019060200280838360005b838110156102005780820151818401526020810190506101e5565b5050505090500187810384528a818151815260200191508051906020019060200280838360005b83811015610242578082015181840152602081019050610227565b50505050905001878103835289818151815260200191508051906020019060200280838360005b83811015610284578082015181840152602081019050610269565b50505050905001878103825288818151815260200191508051906020019060200280838360005b838110156102c65780820151818401526020810190506102ab565b505050509050019d505050505050505050505050505060405180910390f35b3480156102f157600080fd5b5061038c6004803603810190808035906020019082018035906020019080806020026020016040519081016040528093929190818152602001838360200280828437820191505050505050919291929080359060200190820180359060200190808060200260200160405190810160405280939291908181526020018383602002808284378201915050505050509192919290505050610ad1565b604051808060200180602001838103835285818151815260200191508051906020019060200280838360005b838110156103d35780820151818401526020810190506103b8565b50505050905001838103825284818151815260200191508051906020019060200280838360005b838110156104155780820151818401526020810190506103fa565b5050505090500194505050505060405180910390f35b34801561043757600080fd5b5061045660048036038101908080359060200190929190505050610bd3565b60405180831515151581526020018281526020019250505060405180910390f35b34801561048357600080fd5b506104ac6004803603810190808035906020019092919080359060200190929190505050610bf7565b60405180831515151581526020018281526020019250505060405180910390f35b3480156104d957600080fd5b506104e2610c1b565b604051808215151515815260200191505060405180910390f35b34801561050857600080fd5b5061056060048036038101908080359060200190820180359060200190808060200260200160405190810160405280939291908181526020018383602002808284378201915050505050509192919290505050610c2c565b604051808060200180602001838103835285818151815260200191508051906020019060200280838360005b838110156105a757808201518184015260208101905061058c565b50505050905001838103825284818151815260200191508051906020019060200280838360005b838110156105e95780820151818401526020810190506105ce565b5050505090500194505050505060405180910390f35b34801561060b57600080fd5b5061066360048036038101908080359060200190820180359060200190808060200260200160405190810160405280939291908181526020018383602002808284378201915050505050509192919290505050610d14565b604051808060200180602001838103835285818151815260200191508051906020019060200280838360005b838110156106aa57808201518184015260208101905061068f565b50505050905001838103825284818151815260200191508051906020019060200280838360005b838110156106ec5780820151818401526020810190506106d1565b5050505090500194505050505060405180910390f35b34801561070e57600080fd5b50610717610dfc565b6040518082815260200191505060405180910390f35b34801561073957600080fd5b5061075860048036038101908080359060200190929190505050610e08565b60405180831515151581526020018281526020019250505060405180910390f35b34801561078557600080fd5b5061078e610e28565b604051808215151515815260200191505060405180910390f35b3480156107b457600080fd5b506107dd6004803603810190808035906020019092919080359060200190929190505050610e5e565b6040518082815260200191505060405180910390f35b600061080b83836000610e7e9092919063ffffffff16565b905092915050565b600060608060608060608060008060006002015498506001600060010154016040519080825280602002602001820160405280156108605781602001602082028038833980820191505090505b50975060016000600101540160405190808252806020026020018201604052801561089a5781602001602082028038833980820191505090505b5096506001600060010154016040519080825280602002602001820160405280156108d45781602001602082028038833980820191505090505b50955060016000600101540160405190808252806020026020018201604052801561090e5781602001602082028038833980820191505090505b5094506001600060010154016040519080825280602002602001820160405280156109485781602001602082028038833980820191505090505b5093506001600060010154016040519080825280602002602001820160405280156109825781602001602082028038833980820191505090505b509250600091505b60006001015482111515610ac6576000800160008381526020019081526020016000209050806000015488838151811015156109c257fe5b9060200190602002018181525050806001015487838151811015156109e357fe5b9060200190602002018181525050806002016000600281101515610a0357fe5b01548683815181101515610a1357fe5b9060200190602002018181525050806002016001600281101515610a3357fe5b01548583815181101515610a4357fe5b90602001906020020181815250508060040160009054906101000a900460ff168483815181101515610a7157fe5b90602001906020020190151590811515815250508060040160019054906101000a900460ff168383815181101515610aa557fe5b9060200190602002019015159081151581525050818060010192505061098a565b505090919293949596565b60608060008451604051908082528060200260200182016040528015610b065781602001602082028038833980820191505090505b5092508451604051908082528060200260200182016040528015610b395781602001602082028038833980820191505090505b509150600090505b8451811015610bcb57610b828582815181101515610b5b57fe5b906020019060200201518583815181101515610b7357fe5b90602001906020020151610bf7565b8483815181101515610b9057fe5b9060200190602002018484815181101515610ba757fe5b90602001906020020182815250821515151581525050508080600101915050610b41565b509250929050565b600080610bea836000610e9d90919063ffffffff16565b8092508193505050915091565b600080610c10848460006112cc9092919063ffffffff16565b915091509250929050565b600080610c26610dfc565b14905090565b60608060008351604051908082528060200260200182016040528015610c615781602001602082028038833980820191505090505b5092508351604051908082528060200260200182016040528015610c945781602001602082028038833980820191505090505b509150600090505b8351811015610d0e57610cc58482815181101515610cb657fe5b90602001906020020151610bd3565b8483815181101515610cd357fe5b9060200190602002018484815181101515610cea57fe5b90602001906020020182815250821515151581525050508080600101915050610c9c565b50915091565b60608060008351604051908082528060200260200182016040528015610d495781602001602082028038833980820191505090505b5092508351604051908082528060200260200182016040528015610d7c5781602001602082028038833980820191505090505b509150600090505b8351811015610df657610dad8482815181101515610d9e57fe5b90602001906020020151610e08565b8483815181101515610dbb57fe5b9060200190602002018484815181101515610dd257fe5b90602001906020020182815250821515151581525050508080600101915050610d84565b50915091565b60008060030154905090565b600080610e1f83600061130990919063ffffffff16565b91509150915091565b6000610e566000800160008060020154815260200190815260200160002060006113a290919063ffffffff16565b506001905090565b6000610e76838360006116dd9092919063ffffffff16565b905092915050565b600080610e8c858585611705565b905080600101549150509392505050565b60008060008060008060008060008060008060008e600201541415156112bb57600099508d600001600080815260200190815260200160002098508d6002015489600201600160ff16600281101515610ef257fe5b018190555060009750889650889550889450600193508392505b6000896002018560ff16600281101515610f2257fe5b015414151561119a57869550899750889650886002018460ff16600281101515610f4857fe5b015499508d60000160008b815260200190815260200160002098508392508c896000015410610f78576000610f7b565b60015b93508c89600001541415610f8d578894505b610f968961198d565b158015610fab5750610fa98e8a866119c9565b155b1561119557610fbe8e8a866001036119c9565b1561101f57610fcf8e8a8c876119e7565b876002018460ff16600281101515610fe357fe5b0181905550866002018360ff16600281101515610ffc57fe5b015497508d60000160008981526020019081526020016000209650839250611194565b8d6000016000886002018560010360ff1660028110151561103c57fe5b0154815260200190815260200160002091508160040160019054906101000a900460ff1615611193576110718e8360006119c9565b15801561108757506110858e8360016119c9565b155b156110e85760018760040160006101000a81548160ff02191690831515021790555060008960040160006101000a81548160ff02191690831515021790555060008260040160006101000a81548160ff021916908315150217905550611192565b8786600201600060ff166002811015156110fe57fe5b01541461110c57600161110f565b60005b905061111c8e83856119c9565b1561114b5761112d8e888a86611aab565b866002018260ff1660028110151561114157fe5b0181905550611185565b6111598e83856001036119c9565b156111845761116a8e888a866119e7565b866002018260ff1660028110151561117e57fe5b01819055505b5b6111918e8a8884611b32565b5b5b5b5b610f0c565b8460040160019054906101000a900460ff161561127e5760019b5084600101549a508860000154856000018190555088600101548560010181905550886002018460010360ff166002811015156111ed57fe5b0154876002018460ff1660028110151561120357fe5b01819055508d60000160008b8152602001908152602001600020600080820160009055600182016000905560028201600061123e9190611ecf565b6004820160006101000a81549060ff02191690556004820160016101000a81549060ff021916905550508d60030160008154809291906001900391905055505b8d6000016000808152602001908152602001600020600201600160ff166002811015156112a757fe5b01548e600201819055506112ba8e611bcd565b5b505050505050505050509250929050565b60008060006112dc868686611705565b90508381600101541415156113005760019250806001015491508381600101819055505b50935093915050565b600080600080856002015414151561139a578460000160008660020154815260200190815260200160002090505b8060040160019054906101000a900460ff161561139957838160000154141561136a576001925080600101549150611399565b8381600001541015611387576113808582611c05565b9050611394565b6113918582611c1b565b90505b611337565b5b509250929050565b6000806000806000809350600092508560040160019054906101000a900460ff1615156113d257600094506116d3565b6113dc8787611c1b565b91506113e88787611c05565b90506113f38661198d565b156114ab576114018261198d565b8061141157506114108161198d565b5b156114aa576040517f08c379a000000000000000000000000000000000000000000000000000000000815260040180806020018281038252602e8152602001807f5265642076696f6c6174696f6e3a2072656420656e7472792063616e6e6f742081526020017f6861766520726564206368696c6400000000000000000000000000000000000081525060400191505060405180910390fd5b5b6114b587836113a2565b93506114c187826113a2565b92508160040160019054906101000a900460ff1680156114e957508560000154826000015410155b8061151657508060040160019054906101000a900460ff16801561151557508560000154816000015411155b5b156115d5576040517f08c379a000000000000000000000000000000000000000000000000000000000815260040180806020018281038252604c8152602001807f42696e6172792073656172636820747265652076696f6c6174696f6e3a206c6581526020017f6674206368696c64203c20656e747279203c207269676874206368696c64206481526020017f6f6573206e6f7420686f6c64000000000000000000000000000000000000000081525060600191505060405180910390fd5b600084141580156115e7575060008314155b156116ce5782841415156116af576040517f08c379a00000000000000000000000000000000000000000000000000000000081526004018080602001828103825260578152602001807f426c61636b2076696f6c6174696f6e3a206c656674207369646520626c61636b81526020017f207472656520686569676874206d75737420657175616c20746f20726967687481526020017f207369646520626c61636b20747265652068656967687400000000000000000081525060600191505060405180910390fd5b6116b88661198d565b6116c557600184016116c7565b835b94506116d3565b600094505b5050505092915050565b6000806116ea8585611309565b80935081925050508015156116fd578291505b509392505050565b6000806000806000806000806000806000808e6002015414156117425761172d8e8e8e611c31565b8f6002016000829e5083919050555050611973565b600099508d600001600080815260200190815260200160002098508d6002015489600201600160ff1660028110151561177757fe5b01819055508d6002015497508d600001600089815260200190815260200160002096506000955088945088935060009250600091505b60011561193f578660040160019054906101000a900460ff161515611801576117d78e8e8e611c31565b809850819950505087896002018460ff166002811015156117f457fe5b0181905550869a5061180c565b61180b8e88611e02565b5b6118158761198d565b801561182657506118258961198d565b5b156118ce578584600201600060ff1660028110151561184157fe5b01541461184f576001611852565b60005b9050886002018260ff1660028110151561186857fe5b01548814156118a1576118808e8688856001036119e7565b846002018260ff1660028110151561189457fe5b01819055508394506118cd565b6118b08e868885600103611aab565b846002018260ff166002811015156118c457fe5b01819055508398505b5b8c876000015414156118e257869a5061193f565b8291508c8760000154106118f75760006118fa565b60015b9250849350899550889450879950869850866002018360ff1660028110151561191f57fe5b015497508d600001600089815260200190815260200160002096506117ad565b8d6000016000808152602001908152602001600020600201600160ff1660028110151561196857fe5b01548e600201819055505b61197c8e611bcd565b505050505050505050509392505050565b60008160040160019054906101000a900460ff1680156119c25750600015158260040160009054906101000a900460ff161515145b9050919050565b60006119de6119d9858585611e9a565b61198d565b90509392505050565b600080846002018360010360ff16600281101515611a0157fe5b015491508560000160008381526020019081526020016000209050806002018360ff16600281101515611a3057fe5b0154856002018460010360ff16600281101515611a4957fe5b018190555083816002018460ff16600281101515611a6357fe5b018190555060008560040160006101000a81548160ff02191690831515021790555060018160040160006101000a81548160ff02191690831515021790555050949350505050565b6000611b0085866000016000876002018660010360ff16600281101515611ace57fe5b01548152602001908152602001600020866002018560010360ff16600281101515611af557fe5b0154856001036119e7565b846002018360010360ff16600281101515611b1757fe5b0181905550611b28858585856119e7565b9050949350505050565b6000808460040160006101000a81548160ff021916908315150217905550611b5b858484611e9a565b905060008160040160006101000a81548160ff0219169083151502179055506001611b868683611c1b565b60040160006101000a81548160ff0219169083151502179055506001611bac8683611c05565b60040160006101000a81548160ff0219169083151502179055505050505050565b60018160000160008360020154815260200190815260200160002060040160006101000a81548160ff02191690831515021790555050565b6000611c1383836001611e9a565b905092915050565b6000611c2983836000611e9a565b905092915050565b6000807fffffffffffffffffffffffffffffffffffffffffffffffffffffffffffffffff85600101541415611cf4576040517f08c379a00000000000000000000000000000000000000000000000000000000081526004018080602001828103825260298152602001807f75696e74206f766572666c6f773a20756e61626c6520696e73657274206d6f7281526020017f6520656e7472696573000000000000000000000000000000000000000000000081525060400191505060405180910390fd5b8460010160008154600101919050819055915060a06040519081016040528085815260200184815260200160408051908101604052806000815260200160008152508152602001600015158152602001600115158152508560000160008481526020019081526020016000206000820151816000015560208201518160010155604082015181600201906002611d8b929190611edd565b5060608201518160040160006101000a81548160ff02191690831515021790555060808201518160040160016101000a81548160ff02191690831515021790555090505084600001600083815260200190815260200160002090508460030160008154809291906001019190505550935093915050565b600080611e0f8484611c1b565b9150611e1b8484611c05565b9050611e268261198d565b8015611e375750611e368161198d565b5b15611e945760008360040160006101000a81548160ff02191690831515021790555060018260040160006101000a81548160ff02191690831515021790555060018160040160006101000a81548160ff0219169083151502179055505b50505050565b6000836000016000846002018460ff16600281101515611eb657fe5b0154815260200190815260200160002090509392505050565b506000815560010160009055565b8260028101928215611f0c579160200282015b82811115611f0b578251825591602001919060010190611ef0565b5b509050611f199190611f1d565b5090565b611f3f91905b80821115611f3b576000816000905550600101611f23565b5090565b905600a165627a7a7230582019e9d5953eea722b67ce17453e28eef48f92eeaa3ff458ecaecbc5b79d6fd8d40029",
  "source": "pragma solidity ^0.4.23;\n\n\nimport \"../../contracts/TreeMap.sol\";\n\n\ncontract TreeMapMock {\n  using TreeMap for TreeMap.Data;\n\n  TreeMap.Data sortedMap;\n\n  function size()\n  public\n  view\n  returns(uint)\n  {\n    return sortedMap.size;\n  }\n\n  function isEmpty()\n  public\n  view\n  returns(bool)\n  {\n    return size() == 0;\n  }\n\n  function entries()\n  public\n  view\n  returns(uint rootIdx, uint[] keys, uint[] values, uint[] left, uint[] right, bool[] color, bool[] hasData)\n  {\n    rootIdx = sortedMap.rootIdx;\n    keys = new uint[](sortedMap.entriesLength + 1);\n    values = new uint[](sortedMap.entriesLength + 1);\n    left = new uint[](sortedMap.entriesLength + 1);\n    right = new uint[](sortedMap.entriesLength + 1);\n    color = new bool[](sortedMap.entriesLength + 1);\n    hasData = new bool[](sortedMap.entriesLength + 1);\n\n    for (uint i = 0; i <= sortedMap.entriesLength; i++){\n      TreeMap.Entry storage entry = sortedMap.entries[i];\n      keys[i] = entry.key;\n      values[i] = entry.value;\n      left[i] = entry.links[0];\n      right[i] = entry.links[1];\n      color[i] = entry.color;\n      hasData[i] = entry.hasData;\n    }\n  }\n\n  function get(uint key)\n  public\n  view\n  returns(bool found, uint value)\n  {\n    return sortedMap.get(key);\n  }\n\n  function getOrDefault(uint key, uint defaultValue)\n  public\n  view\n  returns(uint value)\n  {\n    return sortedMap.getOrDefault(key, defaultValue);\n  }\n\n  function getAll(uint[] keys)\n  public\n  view\n  returns(bool[] found, uint[] values)\n  {\n    found = new bool[](keys.length);\n    values = new uint[](keys.length);\n    for (uint i = 0; i < keys.length; i++) {\n      (found[i], values[i]) = get(keys[i]);\n    }\n  }\n\n  function putIfAbsent(uint key, uint value)\n  public\n  returns(uint newValue)\n  {\n    return sortedMap.putIfAbsent(key, value);\n  }\n\n  function put(uint key, uint value)\n  public\n  returns(bool replaced, uint oldValue)\n  {\n    return sortedMap.put(key, value);\n  }\n\n  function putAll(uint[] keys, uint[] values)\n  public\n  returns(bool[] replaced, uint[] oldValues)\n  {\n    replaced = new bool[](keys.length);\n    oldValues = new uint[](keys.length);\n\n    for(uint i = 0; i < keys.length; i++) {\n      (replaced[i], oldValues[i]) = put(keys[i], values[i]);\n    }\n  }\n\n  function remove(uint key)\n  public\n  returns(bool removed, uint oldValue)\n  {\n    (removed, oldValue) = sortedMap.remove(key);\n  }\n\n  function removeAll(uint[] keys)\n  public\n  returns(bool[] removed, uint[] oldValues)\n  {\n    removed = new bool[](keys.length);\n    oldValues = new uint[](keys.length);\n\n    for(uint i = 0; i < keys.length; i++) {\n      (removed[i], oldValues[i]) = remove(keys[i]);\n    }\n  }\n\n  function isValid()\n  public\n  view\n  returns(bool)\n  {\n    sortedMap._assert(sortedMap.entries[sortedMap.rootIdx]);\n    return true;\n  }\n}\n",
  "sourcePath": "/Users/saurfang/workspace/solidity-treemap/contracts/mocks/TreeMapMock.sol",
  "compiler": {
    "name": "solc",
    "version": "0.4.23+commit.124ca40d.Emscripten.clang"
  },
  "schemaVersion": "2.0.0",
  "updatedAt": "2018-05-16T05:57:35.602Z"
}